{
  "contractName": "AccuCoin",
  "abi": [
    {
      "inputs": [],
      "stateMutability": "nonpayable",
      "type": "constructor"
    },
    {
      "anonymous": false,
      "inputs": [
        {
          "indexed": true,
          "internalType": "address",
          "name": "owner",
          "type": "address"
        },
        {
          "indexed": true,
          "internalType": "address",
          "name": "spender",
          "type": "address"
        },
        {
          "indexed": false,
          "internalType": "uint256",
          "name": "value",
          "type": "uint256"
        }
      ],
      "name": "Approval",
      "type": "event"
    },
    {
      "anonymous": false,
      "inputs": [
        {
          "indexed": true,
          "internalType": "bytes32",
          "name": "role",
          "type": "bytes32"
        },
        {
          "indexed": true,
          "internalType": "bytes32",
          "name": "previousAdminRole",
          "type": "bytes32"
        },
        {
          "indexed": true,
          "internalType": "bytes32",
          "name": "newAdminRole",
          "type": "bytes32"
        }
      ],
      "name": "RoleAdminChanged",
      "type": "event"
    },
    {
      "anonymous": false,
      "inputs": [
        {
          "indexed": true,
          "internalType": "bytes32",
          "name": "role",
          "type": "bytes32"
        },
        {
          "indexed": true,
          "internalType": "address",
          "name": "account",
          "type": "address"
        },
        {
          "indexed": true,
          "internalType": "address",
          "name": "sender",
          "type": "address"
        }
      ],
      "name": "RoleGranted",
      "type": "event"
    },
    {
      "anonymous": false,
      "inputs": [
        {
          "indexed": true,
          "internalType": "bytes32",
          "name": "role",
          "type": "bytes32"
        },
        {
          "indexed": true,
          "internalType": "address",
          "name": "account",
          "type": "address"
        },
        {
          "indexed": true,
          "internalType": "address",
          "name": "sender",
          "type": "address"
        }
      ],
      "name": "RoleRevoked",
      "type": "event"
    },
    {
      "anonymous": false,
      "inputs": [
        {
          "indexed": true,
          "internalType": "address",
          "name": "from",
          "type": "address"
        },
        {
          "indexed": true,
          "internalType": "address",
          "name": "to",
          "type": "address"
        },
        {
          "indexed": false,
          "internalType": "uint256",
          "name": "value",
          "type": "uint256"
        }
      ],
      "name": "Transfer",
      "type": "event"
    },
    {
      "inputs": [],
      "name": "DEFAULT_ADMIN_ROLE",
      "outputs": [
        {
          "internalType": "bytes32",
          "name": "",
          "type": "bytes32"
        }
      ],
      "stateMutability": "view",
      "type": "function",
      "constant": true
    },
    {
      "inputs": [],
      "name": "MINTER_ROLE",
      "outputs": [
        {
          "internalType": "bytes32",
          "name": "",
          "type": "bytes32"
        }
      ],
      "stateMutability": "view",
      "type": "function",
      "constant": true
    },
    {
      "inputs": [
        {
          "internalType": "address",
          "name": "owner",
          "type": "address"
        },
        {
          "internalType": "address",
          "name": "spender",
          "type": "address"
        }
      ],
      "name": "allowance",
      "outputs": [
        {
          "internalType": "uint256",
          "name": "",
          "type": "uint256"
        }
      ],
      "stateMutability": "view",
      "type": "function",
      "constant": true
    },
    {
      "inputs": [
        {
          "internalType": "address",
          "name": "spender",
          "type": "address"
        },
        {
          "internalType": "uint256",
          "name": "amount",
          "type": "uint256"
        }
      ],
      "name": "approve",
      "outputs": [
        {
          "internalType": "bool",
          "name": "",
          "type": "bool"
        }
      ],
      "stateMutability": "nonpayable",
      "type": "function"
    },
    {
      "inputs": [
        {
          "internalType": "address",
          "name": "account",
          "type": "address"
        }
      ],
      "name": "balanceOf",
      "outputs": [
        {
          "internalType": "uint256",
          "name": "",
          "type": "uint256"
        }
      ],
      "stateMutability": "view",
      "type": "function",
      "constant": true
    },
    {
      "inputs": [],
      "name": "decimals",
      "outputs": [
        {
          "internalType": "uint8",
          "name": "",
          "type": "uint8"
        }
      ],
      "stateMutability": "view",
      "type": "function",
      "constant": true
    },
    {
      "inputs": [
        {
          "internalType": "address",
          "name": "spender",
          "type": "address"
        },
        {
          "internalType": "uint256",
          "name": "subtractedValue",
          "type": "uint256"
        }
      ],
      "name": "decreaseAllowance",
      "outputs": [
        {
          "internalType": "bool",
          "name": "",
          "type": "bool"
        }
      ],
      "stateMutability": "nonpayable",
      "type": "function"
    },
    {
      "inputs": [
        {
          "internalType": "bytes32",
          "name": "role",
          "type": "bytes32"
        }
      ],
      "name": "getRoleAdmin",
      "outputs": [
        {
          "internalType": "bytes32",
          "name": "",
          "type": "bytes32"
        }
      ],
      "stateMutability": "view",
      "type": "function",
      "constant": true
    },
    {
      "inputs": [
        {
          "internalType": "bytes32",
          "name": "role",
          "type": "bytes32"
        },
        {
          "internalType": "address",
          "name": "account",
          "type": "address"
        }
      ],
      "name": "grantRole",
      "outputs": [],
      "stateMutability": "nonpayable",
      "type": "function"
    },
    {
      "inputs": [
        {
          "internalType": "bytes32",
          "name": "role",
          "type": "bytes32"
        },
        {
          "internalType": "address",
          "name": "account",
          "type": "address"
        }
      ],
      "name": "hasRole",
      "outputs": [
        {
          "internalType": "bool",
          "name": "",
          "type": "bool"
        }
      ],
      "stateMutability": "view",
      "type": "function",
      "constant": true
    },
    {
      "inputs": [
        {
          "internalType": "address",
          "name": "spender",
          "type": "address"
        },
        {
          "internalType": "uint256",
          "name": "addedValue",
          "type": "uint256"
        }
      ],
      "name": "increaseAllowance",
      "outputs": [
        {
          "internalType": "bool",
          "name": "",
          "type": "bool"
        }
      ],
      "stateMutability": "nonpayable",
      "type": "function"
    },
    {
      "inputs": [],
      "name": "name",
      "outputs": [
        {
          "internalType": "string",
          "name": "",
          "type": "string"
        }
      ],
      "stateMutability": "view",
      "type": "function",
      "constant": true
    },
    {
      "inputs": [
        {
          "internalType": "bytes32",
          "name": "role",
          "type": "bytes32"
        },
        {
          "internalType": "address",
          "name": "account",
          "type": "address"
        }
      ],
      "name": "renounceRole",
      "outputs": [],
      "stateMutability": "nonpayable",
      "type": "function"
    },
    {
      "inputs": [
        {
          "internalType": "bytes32",
          "name": "role",
          "type": "bytes32"
        },
        {
          "internalType": "address",
          "name": "account",
          "type": "address"
        }
      ],
      "name": "revokeRole",
      "outputs": [],
      "stateMutability": "nonpayable",
      "type": "function"
    },
    {
      "inputs": [
        {
          "internalType": "bytes4",
          "name": "interfaceId",
          "type": "bytes4"
        }
      ],
      "name": "supportsInterface",
      "outputs": [
        {
          "internalType": "bool",
          "name": "",
          "type": "bool"
        }
      ],
      "stateMutability": "view",
      "type": "function",
      "constant": true
    },
    {
      "inputs": [],
      "name": "symbol",
      "outputs": [
        {
          "internalType": "string",
          "name": "",
          "type": "string"
        }
      ],
      "stateMutability": "view",
      "type": "function",
      "constant": true
    },
    {
      "inputs": [],
      "name": "totalSupply",
      "outputs": [
        {
          "internalType": "uint256",
          "name": "",
          "type": "uint256"
        }
      ],
      "stateMutability": "view",
      "type": "function",
      "constant": true
    },
    {
      "inputs": [
        {
          "internalType": "address",
          "name": "to",
          "type": "address"
        },
        {
          "internalType": "uint256",
          "name": "amount",
          "type": "uint256"
        }
      ],
      "name": "transfer",
      "outputs": [
        {
          "internalType": "bool",
          "name": "",
          "type": "bool"
        }
      ],
      "stateMutability": "nonpayable",
      "type": "function"
    },
    {
      "inputs": [
        {
          "internalType": "address",
          "name": "from",
          "type": "address"
        },
        {
          "internalType": "address",
          "name": "to",
          "type": "address"
        },
        {
          "internalType": "uint256",
          "name": "amount",
          "type": "uint256"
        }
      ],
      "name": "transferFrom",
      "outputs": [
        {
          "internalType": "bool",
          "name": "",
          "type": "bool"
        }
      ],
      "stateMutability": "nonpayable",
      "type": "function"
    },
    {
      "inputs": [
        {
          "internalType": "address",
          "name": "to",
          "type": "address"
        },
        {
          "internalType": "uint256",
          "name": "amount",
          "type": "uint256"
        }
      ],
      "name": "mint",
      "outputs": [],
      "stateMutability": "nonpayable",
      "type": "function"
    },
    {
      "inputs": [
        {
          "internalType": "address",
          "name": "_address",
          "type": "address"
        }
      ],
      "name": "isWhitelisted",
      "outputs": [
        {
          "internalType": "bool",
          "name": "",
          "type": "bool"
        }
      ],
      "stateMutability": "view",
      "type": "function",
      "constant": true
    },
    {
      "inputs": [
        {
          "internalType": "address",
          "name": "_address",
          "type": "address"
        }
      ],
      "name": "addToWhitelist",
      "outputs": [],
      "stateMutability": "nonpayable",
      "type": "function"
    },
    {
      "inputs": [
        {
          "internalType": "address",
          "name": "_address",
          "type": "address"
        }
      ],
      "name": "removeFromWhitelist",
      "outputs": [],
      "stateMutability": "nonpayable",
      "type": "function"
    },
    {
      "inputs": [
        {
          "internalType": "address",
          "name": "_address",
          "type": "address"
        }
      ],
      "name": "addMinterRole",
      "outputs": [],
      "stateMutability": "nonpayable",
      "type": "function"
    },
    {
      "inputs": [
        {
          "internalType": "address",
          "name": "_address",
          "type": "address"
        }
      ],
      "name": "revokeMinterRole",
      "outputs": [],
      "stateMutability": "nonpayable",
      "type": "function"
    }
  ],
  "bytecode": "0x60806040523480156200001157600080fd5b506040518060400160405280600981526020017f4143435520434f494e00000000000000000000000000000000000000000000008152506040518060400160405280600481526020017f414343550000000000000000000000000000000000000000000000000000000081525081600390816200008f919062000264565b5060046200009e828262000264565b50620000b991506000905033640100000000620000bf810204565b62000337565b620000d482826401000000006200015e810204565b6200015a576000828152600560209081526040808320600160a060020a03851684529091529020805460ff191660011790556200011964010000000062000189810204565b600160a060020a031681600160a060020a0316837f2f8788117e7eff1d82e926ec794901d17c78024a50270940304540a733656f0d60405160405180910390a45b5050565b6000918252600560209081526040808420600160a060020a0393909316845291905290205460ff1690565b3390565b7f4e487b7100000000000000000000000000000000000000000000000000000000600052604160045260246000fd5b600281046001821680620001d157607f821691505b6020821081036200020b577f4e487b7100000000000000000000000000000000000000000000000000000000600052602260045260246000fd5b50919050565b601f8211156200025f576000818152602081206020601f860104810160208610156200023a5750805b6020601f860104820191505b818110156200025b5782815560010162000246565b5050505b505050565b815167ffffffffffffffff8111156200028157620002816200018d565b6200029981620002928454620001bc565b8462000211565b602080601f831160018114620002d55760008415620002b85750858301515b60028086026008870290910a60001904198216178655506200025b565b600085815260208120601f198616915b828110156200030657888601518255948401946001909101908401620002e5565b50858210156200032757878501516008601f88160260020a60001904191681555b5050505050600202600101905550565b61144b80620003476000396000f3fe608060405234801561001057600080fd5b5060043610610190576000357c01000000000000000000000000000000000000000000000000000000009004806369e2f0fb116100fb578063a457c2d7116100b4578063d53913931161008e578063d539139314610361578063d547741f14610376578063dd62ed3e14610389578063e43252d71461039c57600080fd5b8063a457c2d714610328578063a9059cbb1461033b578063adbf37761461034e57600080fd5b806369e2f0fb146102b657806370a08231146102c95780638ab1d681146102f257806391d148541461030557806395d89b4114610318578063a217fddf1461032057600080fd5b80632f2ff15d1161014d5780632f2ff15d1461022d578063313ce5671461024257806336568abe1461025157806339509351146102645780633af32abf1461027757806340c10f19146102a357600080fd5b806301ffc9a71461019557806306fdde03146101bd578063095ea7b3146101d257806318160ddd146101e557806323b872dd146101f7578063248a9ca31461020a575b600080fd5b6101a86101a3366004611109565b6103af565b60405190151581526020015b60405180910390f35b6101c5610442565b6040516101b4919061116c565b6101a86101e03660046111bb565b6104d4565b6002545b6040519081526020016101b4565b6101a86102053660046111e5565b6104ec565b6101e9610218366004611221565b60009081526005602052604090206001015490565b61024061023b36600461123a565b610510565b005b604051601281526020016101b4565b61024061025f36600461123a565b61053a565b6101a86102723660046111bb565b6105ce565b6101a8610285366004611266565b600160a060020a031660009081526006602052604090205460ff1690565b6102406102b13660046111bb565b6105f0565b6102406102c4366004611266565b610612565b6101e96102d7366004611266565b600160a060020a031660009081526020819052604090205490565b610240610300366004611266565b610635565b6101a861031336600461123a565b610662565b6101c561068d565b6101e9600081565b6101a86103363660046111bb565b61069c565b6101a86103493660046111bb565b610732565b61024061035c366004611266565b610740565b6101e96000805160206113f683398151915281565b61024061038436600461123a565b610763565b6101e9610397366004611281565b610788565b6102406103aa366004611266565b6107b3565b60007bffffffffffffffffffffffffffffffffffffffffffffffffffffffff1982167f7965db0b00000000000000000000000000000000000000000000000000000000148061043c57507f01ffc9a7000000000000000000000000000000000000000000000000000000007bffffffffffffffffffffffffffffffffffffffffffffffffffffffff198316145b92915050565b606060038054610451906112ab565b80601f016020809104026020016040519081016040528092919081815260200182805461047d906112ab565b80156104ca5780601f1061049f576101008083540402835291602001916104ca565b820191906000526020600020905b8154815290600101906020018083116104ad57829003601f168201915b5050505050905090565b6000336104e28185856107e3565b5060019392505050565b6000336104fa858285610941565b6105058585856109be565b506001949350505050565b60008281526005602052604090206001015461052b81610bbf565b6105358383610bcc565b505050565b600160a060020a03811633146105c05760405160e560020a62461bcd02815260206004820152602f60248201527f416363657373436f6e74726f6c3a2063616e206f6e6c792072656e6f756e636560448201527f20726f6c657320666f722073656c66000000000000000000000000000000000060648201526084015b60405180910390fd5b6105ca8282610c52565b5050565b6000336104e28185856105e18383610788565b6105eb9190611301565b6107e3565b6000805160206113f683398151915261060881610bbf565b6105358383610cb9565b600061061d81610bbf565b6105ca6000805160206113f683398151915283610c52565b600061064081610bbf565b50600160a060020a03166000908152600660205260409020805460ff19169055565b6000918252600560209081526040808420600160a060020a0393909316845291905290205460ff1690565b606060048054610451906112ab565b600033816106aa8286610788565b9050838110156107255760405160e560020a62461bcd02815260206004820152602560248201527f45524332303a2064656372656173656420616c6c6f77616e63652062656c6f7760448201527f207a65726f00000000000000000000000000000000000000000000000000000060648201526084016105b7565b61050582868684036107e3565b6000336104e28185856109be565b600061074b81610bbf565b6105ca6000805160206113f683398151915283610bcc565b60008281526005602052604090206001015461077e81610bbf565b6105358383610c52565b600160a060020a03918216600090815260016020908152604080832093909416825291909152205490565b60006107be81610bbf565b50600160a060020a03166000908152600660205260409020805460ff19166001179055565b600160a060020a0383166108615760405160e560020a62461bcd028152602060048201526024808201527f45524332303a20617070726f76652066726f6d20746865207a65726f2061646460448201527f726573730000000000000000000000000000000000000000000000000000000060648201526084016105b7565b600160a060020a0382166108e05760405160e560020a62461bcd02815260206004820152602260248201527f45524332303a20617070726f766520746f20746865207a65726f20616464726560448201527f737300000000000000000000000000000000000000000000000000000000000060648201526084016105b7565b600160a060020a0383811660008181526001602090815260408083209487168084529482529182902085905590518481527f8c5be1e5ebec7d5bd14f71427d1e84f3dd0314c0f7b2291e5b200ac8c7c3b925910160405180910390a3505050565b600061094d8484610788565b905060001981146109b857818110156109ab5760405160e560020a62461bcd02815260206004820152601d60248201527f45524332303a20696e73756666696369656e7420616c6c6f77616e636500000060448201526064016105b7565b6109b884848484036107e3565b50505050565b600160a060020a038316610a3d5760405160e560020a62461bcd02815260206004820152602560248201527f45524332303a207472616e736665722066726f6d20746865207a65726f20616460448201527f647265737300000000000000000000000000000000000000000000000000000060648201526084016105b7565b600160a060020a038216610abc5760405160e560020a62461bcd02815260206004820152602360248201527f45524332303a207472616e7366657220746f20746865207a65726f206164647260448201527f657373000000000000000000000000000000000000000000000000000000000060648201526084016105b7565b610ac7838383610d87565b600160a060020a03831660009081526020819052604090205481811015610b595760405160e560020a62461bcd02815260206004820152602660248201527f45524332303a207472616e7366657220616d6f756e742065786365656473206260448201527f616c616e6365000000000000000000000000000000000000000000000000000060648201526084016105b7565b600160a060020a03848116600081815260208181526040808320878703905593871680835291849020805487019055925185815290927fddf252ad1be2c89b69c2b068fc378daa952ba7f163c4a11628f55a4df523b3ef910160405180910390a36109b8565b610bc98133610e4a565b50565b610bd68282610662565b6105ca576000828152600560209081526040808320600160a060020a03851684529091529020805460ff19166001179055610c0e3390565b600160a060020a031681600160a060020a0316837f2f8788117e7eff1d82e926ec794901d17c78024a50270940304540a733656f0d60405160405180910390a45050565b610c5c8282610662565b156105ca576000828152600560209081526040808320600160a060020a0385168085529252808320805460ff1916905551339285917ff6391f5c32d9c69d2a47ea670b442974b53935d1edc7fd64eb21e047a839171b9190a45050565b600160a060020a038216610d125760405160e560020a62461bcd02815260206004820152601f60248201527f45524332303a206d696e7420746f20746865207a65726f20616464726573730060448201526064016105b7565b610d1e60008383610d87565b8060026000828254610d309190611301565b9091555050600160a060020a038216600081815260208181526040808320805486019055518481527fddf252ad1be2c89b69c2b068fc378daa952ba7f163c4a11628f55a4df523b3ef910160405180910390a35050565b600160a060020a0383161561053557600160a060020a03831660009081526006602052604090205460ff1680610dd55750600160a060020a03821660009081526006602052604090205460ff165b6105355760405160e560020a62461bcd02815260206004820152602760248201527f41636375436f696e3a206f6e6c792077686974656c69737465642063616e207460448201527f72616e736665720000000000000000000000000000000000000000000000000060648201526084016105b7565b610e548282610662565b6105ca57610e6181610ea6565b610e6c836020610eb8565b604051602001610e7d929190611314565b60408051601f198184030181529082905260e560020a62461bcd0282526105b79160040161116c565b606061043c600160a060020a03831660145b60606000610ec7836002611395565b610ed2906002611301565b67ffffffffffffffff811115610eea57610eea6113ac565b6040519080825280601f01601f191660200182016040528015610f14576020820181803683370190505b5090507f300000000000000000000000000000000000000000000000000000000000000081600081518110610f4b57610f4b6113c5565b60200101907effffffffffffffffffffffffffffffffffffffffffffffffffffffffffffff1916908160001a9053507f780000000000000000000000000000000000000000000000000000000000000081600181518110610fae57610fae6113c5565b60200101907effffffffffffffffffffffffffffffffffffffffffffffffffffffffffffff1916908160001a9053506000610fea846002611395565b610ff5906001611301565b90505b60018111156110b0577f303132333435363738396162636465660000000000000000000000000000000085600f1660108110611036576110366113c5565b1a7f01000000000000000000000000000000000000000000000000000000000000000282828151811061106b5761106b6113c5565b60200101907effffffffffffffffffffffffffffffffffffffffffffffffffffffffffffff1916908160001a9053506010909404936110a9816113de565b9050610ff8565b5083156111025760405160e560020a62461bcd02815260206004820181905260248201527f537472696e67733a20686578206c656e67746820696e73756666696369656e7460448201526064016105b7565b9392505050565b60006020828403121561111b57600080fd5b81357bffffffffffffffffffffffffffffffffffffffffffffffffffffffff198116811461110257600080fd5b60005b8381101561116357818101518382015260200161114b565b50506000910152565b602081526000825180602084015261118b816040850160208701611148565b601f01601f19169190910160400192915050565b8035600160a060020a03811681146111b657600080fd5b919050565b600080604083850312156111ce57600080fd5b6111d78361119f565b946020939093013593505050565b6000806000606084860312156111fa57600080fd5b6112038461119f565b92506112116020850161119f565b9150604084013590509250925092565b60006020828403121561123357600080fd5b5035919050565b6000806040838503121561124d57600080fd5b8235915061125d6020840161119f565b90509250929050565b60006020828403121561127857600080fd5b6111028261119f565b6000806040838503121561129457600080fd5b61129d8361119f565b915061125d6020840161119f565b6002810460018216806112bf57607f821691505b6020821081036112e25760e060020a634e487b7102600052602260045260246000fd5b50919050565b60e060020a634e487b7102600052601160045260246000fd5b8082018082111561043c5761043c6112e8565b7f416363657373436f6e74726f6c3a206163636f756e742000000000000000000081526000835161134c816017850160208801611148565b7f206973206d697373696e6720726f6c65200000000000000000000000000000006017918401918201528351611389816028840160208801611148565b01602801949350505050565b808202811582820484141761043c5761043c6112e8565b60e060020a634e487b7102600052604160045260246000fd5b60e060020a634e487b7102600052603260045260246000fd5b6000816113ed576113ed6112e8565b50600019019056fe9f2df0fed2c77648de5860a4cc508cd0818c85b8b8a1ab4ceeef8d981c8956a6a2646970667358221220e243163e3b9048200b85e3126e3e9a7d3cc741a6ea4676f54504d0b2ada0e81064736f6c63430008110033",
  "immutableReferences": {},
  "source": "// SPDX-License-Identifier: MIT\r\npragma solidity 0.8.17;\r\n\r\nimport \"@openzeppelin/contracts/token/ERC20/ERC20.sol\";\r\nimport \"@openzeppelin/contracts/access/AccessControl.sol\";\r\n\r\ncontract AccuCoin is ERC20, AccessControl {\r\n    bytes32 public constant MINTER_ROLE = keccak256(\"MINTER_ROLE\");\r\n    mapping(address => bool) private _isWhitelisted;\r\n\r\n    constructor() ERC20(\"ACCU COIN\", \"ACCU\") {\r\n        // Granting  the contract deployer default admin role: it will be able\r\n        // to grant and revoke any roles\r\n        _grantRole(DEFAULT_ADMIN_ROLE, msg.sender);\r\n    }\r\n\r\n    /**\r\n     * @notice This function is to mint tokens to an address\r\n     * @dev Only MINTER_ROLE can call this function\r\n     * @param to Address to which tokens will be minted\r\n     * @param amount Amount of tokens to be minted\r\n     */\r\n    function mint(address to, uint256 amount) public onlyRole(MINTER_ROLE) {\r\n        _mint(to, amount);\r\n    }\r\n\r\n    /**\r\n     * @notice View function to check if an address is whitelisted to transfer tokens\r\n     * @param _address Address of the wallet\r\n     */\r\n    function isWhitelisted(address _address) external view returns (bool) {\r\n        return _isWhitelisted[_address];\r\n    }\r\n\r\n    /**\r\n     * @notice Function to add an address to transfer whitelist\r\n     * @dev Only DEFAULT_ADMIN can call this function\r\n     * @param _address Address of the wallet\r\n     */\r\n    function addToWhitelist(\r\n        address _address\r\n    ) public onlyRole(DEFAULT_ADMIN_ROLE) {\r\n        _isWhitelisted[_address] = true;\r\n    }\r\n\r\n    /**\r\n     * @notice Function to remove an address from transfer whitelist\r\n     * @dev Only DEFAULT_ADMIN can call this function\r\n     * @param _address Address of the wallet\r\n     */\r\n    function removeFromWhitelist(\r\n        address _address\r\n    ) public onlyRole(DEFAULT_ADMIN_ROLE) {\r\n        _isWhitelisted[_address] = false;\r\n    }\r\n\r\n    /**\r\n     * @notice Function to add MINTER_ROLE to an address\r\n     * @dev Only DEFAULT_ADMIN can call this function\r\n     * @param _address Address of the wallet\r\n     */\r\n    function addMinterRole(\r\n        address _address\r\n    ) public onlyRole(DEFAULT_ADMIN_ROLE) {\r\n        _grantRole(MINTER_ROLE, _address);\r\n    }\r\n\r\n    /**\r\n     * @notice Function to revoke MINTER_ROLE from an address\r\n     * @dev Only DEFAULT_ADMIN can call this function\r\n     * @param _address Address of the wallet\r\n     */\r\n    function revokeMinterRole(\r\n        address _address\r\n    ) public onlyRole(DEFAULT_ADMIN_ROLE) {\r\n        _revokeRole(MINTER_ROLE, _address);\r\n    }\r\n\r\n    /**\r\n     * @notice Hook function that is called before any token actions involving a Transfer\r\n     * @param from Address to transfer tokens from\r\n     * @param to Address to which tokens are transferred\r\n     */\r\n    function _beforeTokenTransfer(\r\n        address from,\r\n        address to,\r\n        uint256\r\n    ) internal override {\r\n        if (from != address(0))\r\n            require(\r\n                _isWhitelisted[from] || _isWhitelisted[to],\r\n                \"AccuCoin: only whitelisted can transfer\"\r\n            );\r\n    }\r\n}\r\n",
  "sourcePath": "C:\\Users\\Lenovo\\RnR\\Tokenopati\\contracts\\AccuCoin.sol",
  "compiler": {
    "name": "solc",
    "version": "0.8.17+commit.8df45f5f.Emscripten.clang"
  },
  "schemaVersion": "3.4.11",
  "updatedAt": "2023-01-27T18:51:00.907Z",
  "networkType": "ethereum",
  "devdoc": {
    "kind": "dev",
    "methods": {
      "addMinterRole(address)": {
        "details": "Only DEFAULT_ADMIN can call this function",
        "params": {
          "_address": "Address of the wallet"
        }
      },
      "addToWhitelist(address)": {
        "details": "Only DEFAULT_ADMIN can call this function",
        "params": {
          "_address": "Address of the wallet"
        }
      },
      "allowance(address,address)": {
        "details": "See {IERC20-allowance}."
      },
      "approve(address,uint256)": {
        "details": "See {IERC20-approve}. NOTE: If `amount` is the maximum `uint256`, the allowance is not updated on `transferFrom`. This is semantically equivalent to an infinite approval. Requirements: - `spender` cannot be the zero address."
      },
      "balanceOf(address)": {
        "details": "See {IERC20-balanceOf}."
      },
      "decimals()": {
        "details": "Returns the number of decimals used to get its user representation. For example, if `decimals` equals `2`, a balance of `505` tokens should be displayed to a user as `5.05` (`505 / 10 ** 2`). Tokens usually opt for a value of 18, imitating the relationship between Ether and Wei. This is the value {ERC20} uses, unless this function is overridden; NOTE: This information is only used for _display_ purposes: it in no way affects any of the arithmetic of the contract, including {IERC20-balanceOf} and {IERC20-transfer}."
      },
      "decreaseAllowance(address,uint256)": {
        "details": "Atomically decreases the allowance granted to `spender` by the caller. This is an alternative to {approve} that can be used as a mitigation for problems described in {IERC20-approve}. Emits an {Approval} event indicating the updated allowance. Requirements: - `spender` cannot be the zero address. - `spender` must have allowance for the caller of at least `subtractedValue`."
      },
      "getRoleAdmin(bytes32)": {
        "details": "Returns the admin role that controls `role`. See {grantRole} and {revokeRole}. To change a role's admin, use {_setRoleAdmin}."
      },
      "grantRole(bytes32,address)": {
        "details": "Grants `role` to `account`. If `account` had not been already granted `role`, emits a {RoleGranted} event. Requirements: - the caller must have ``role``'s admin role. May emit a {RoleGranted} event."
      },
      "hasRole(bytes32,address)": {
        "details": "Returns `true` if `account` has been granted `role`."
      },
      "increaseAllowance(address,uint256)": {
        "details": "Atomically increases the allowance granted to `spender` by the caller. This is an alternative to {approve} that can be used as a mitigation for problems described in {IERC20-approve}. Emits an {Approval} event indicating the updated allowance. Requirements: - `spender` cannot be the zero address."
      },
      "isWhitelisted(address)": {
        "params": {
          "_address": "Address of the wallet"
        }
      },
      "mint(address,uint256)": {
        "details": "Only MINTER_ROLE can call this function",
        "params": {
          "amount": "Amount of tokens to be minted",
          "to": "Address to which tokens will be minted"
        }
      },
      "name()": {
        "details": "Returns the name of the token."
      },
      "removeFromWhitelist(address)": {
        "details": "Only DEFAULT_ADMIN can call this function",
        "params": {
          "_address": "Address of the wallet"
        }
      },
      "renounceRole(bytes32,address)": {
        "details": "Revokes `role` from the calling account. Roles are often managed via {grantRole} and {revokeRole}: this function's purpose is to provide a mechanism for accounts to lose their privileges if they are compromised (such as when a trusted device is misplaced). If the calling account had been revoked `role`, emits a {RoleRevoked} event. Requirements: - the caller must be `account`. May emit a {RoleRevoked} event."
      },
      "revokeMinterRole(address)": {
        "details": "Only DEFAULT_ADMIN can call this function",
        "params": {
          "_address": "Address of the wallet"
        }
      },
      "revokeRole(bytes32,address)": {
        "details": "Revokes `role` from `account`. If `account` had been granted `role`, emits a {RoleRevoked} event. Requirements: - the caller must have ``role``'s admin role. May emit a {RoleRevoked} event."
      },
      "supportsInterface(bytes4)": {
        "details": "See {IERC165-supportsInterface}."
      },
      "symbol()": {
        "details": "Returns the symbol of the token, usually a shorter version of the name."
      },
      "totalSupply()": {
        "details": "See {IERC20-totalSupply}."
      },
      "transfer(address,uint256)": {
        "details": "See {IERC20-transfer}. Requirements: - `to` cannot be the zero address. - the caller must have a balance of at least `amount`."
      },
      "transferFrom(address,address,uint256)": {
        "details": "See {IERC20-transferFrom}. Emits an {Approval} event indicating the updated allowance. This is not required by the EIP. See the note at the beginning of {ERC20}. NOTE: Does not update the allowance if the current allowance is the maximum `uint256`. Requirements: - `from` and `to` cannot be the zero address. - `from` must have a balance of at least `amount`. - the caller must have allowance for ``from``'s tokens of at least `amount`."
      }
    },
    "version": 1
  },
  "userdoc": {
    "kind": "user",
    "methods": {
      "addMinterRole(address)": {
        "notice": "Function to add MINTER_ROLE to an address"
      },
      "addToWhitelist(address)": {
        "notice": "Function to add an address to transfer whitelist"
      },
      "isWhitelisted(address)": {
        "notice": "View function to check if an address is whitelisted to transfer tokens"
      },
      "mint(address,uint256)": {
        "notice": "This function is to mint tokens to an address"
      },
      "removeFromWhitelist(address)": {
        "notice": "Function to remove an address from transfer whitelist"
      },
      "revokeMinterRole(address)": {
        "notice": "Function to revoke MINTER_ROLE from an address"
      }
    },
    "version": 1
  }
}