{
  "contractName": "Cryptopati",
  "abi": [
    {
      "inputs": [
        {
          "internalType": "contract IAccuCoin",
          "name": "_accuCoin",
          "type": "address"
        },
        {
          "internalType": "address",
          "name": "_platform",
          "type": "address"
        }
      ],
      "stateMutability": "nonpayable",
      "type": "constructor"
    },
    {
      "anonymous": false,
      "inputs": [
        {
          "indexed": true,
          "internalType": "address",
          "name": "user",
          "type": "address"
        },
        {
          "indexed": false,
          "internalType": "uint256",
          "name": "amount",
          "type": "uint256"
        }
      ],
      "name": "ClaimTokens",
      "type": "event"
    },
    {
      "anonymous": false,
      "inputs": [
        {
          "indexed": true,
          "internalType": "address",
          "name": "previousOwner",
          "type": "address"
        },
        {
          "indexed": true,
          "internalType": "address",
          "name": "newOwner",
          "type": "address"
        }
      ],
      "name": "OwnershipTransferred",
      "type": "event"
    },
    {
      "anonymous": false,
      "inputs": [
        {
          "indexed": false,
          "internalType": "address",
          "name": "account",
          "type": "address"
        }
      ],
      "name": "Paused",
      "type": "event"
    },
    {
      "anonymous": false,
      "inputs": [
        {
          "indexed": false,
          "internalType": "string",
          "name": "questionId",
          "type": "string"
        }
      ],
      "name": "QuestionAdd",
      "type": "event"
    },
    {
      "anonymous": false,
      "inputs": [
        {
          "indexed": true,
          "internalType": "address",
          "name": "user",
          "type": "address"
        },
        {
          "indexed": false,
          "internalType": "string",
          "name": "questionId",
          "type": "string"
        },
        {
          "indexed": false,
          "internalType": "uint256",
          "name": "commitAmount",
          "type": "uint256"
        }
      ],
      "name": "UnlockQuestion",
      "type": "event"
    },
    {
      "anonymous": false,
      "inputs": [
        {
          "indexed": false,
          "internalType": "address",
          "name": "account",
          "type": "address"
        }
      ],
      "name": "Unpaused",
      "type": "event"
    },
    {
      "anonymous": false,
      "inputs": [
        {
          "indexed": true,
          "internalType": "address",
          "name": "user",
          "type": "address"
        },
        {
          "indexed": false,
          "internalType": "string",
          "name": "questionId",
          "type": "string"
        },
        {
          "indexed": false,
          "internalType": "uint256",
          "name": "rewardAmount",
          "type": "uint256"
        }
      ],
      "name": "WinQuestion",
      "type": "event"
    },
    {
      "inputs": [],
      "name": "accuCoin",
      "outputs": [
        {
          "internalType": "contract IAccuCoin",
          "name": "",
          "type": "address"
        }
      ],
      "stateMutability": "view",
      "type": "function",
      "constant": true
    },
    {
      "inputs": [],
      "name": "initialAmount",
      "outputs": [
        {
          "internalType": "uint256",
          "name": "",
          "type": "uint256"
        }
      ],
      "stateMutability": "view",
      "type": "function",
      "constant": true
    },
    {
      "inputs": [],
      "name": "isInitialClaimable",
      "outputs": [
        {
          "internalType": "bool",
          "name": "",
          "type": "bool"
        }
      ],
      "stateMutability": "view",
      "type": "function",
      "constant": true
    },
    {
      "inputs": [],
      "name": "isReplenishable",
      "outputs": [
        {
          "internalType": "bool",
          "name": "",
          "type": "bool"
        }
      ],
      "stateMutability": "view",
      "type": "function",
      "constant": true
    },
    {
      "inputs": [],
      "name": "owner",
      "outputs": [
        {
          "internalType": "address",
          "name": "",
          "type": "address"
        }
      ],
      "stateMutability": "view",
      "type": "function",
      "constant": true
    },
    {
      "inputs": [],
      "name": "paused",
      "outputs": [
        {
          "internalType": "bool",
          "name": "",
          "type": "bool"
        }
      ],
      "stateMutability": "view",
      "type": "function",
      "constant": true
    },
    {
      "inputs": [],
      "name": "platform",
      "outputs": [
        {
          "internalType": "address",
          "name": "",
          "type": "address"
        }
      ],
      "stateMutability": "view",
      "type": "function",
      "constant": true
    },
    {
      "inputs": [],
      "name": "renounceOwnership",
      "outputs": [],
      "stateMutability": "nonpayable",
      "type": "function"
    },
    {
      "inputs": [],
      "name": "replenishAmount",
      "outputs": [
        {
          "internalType": "uint256",
          "name": "",
          "type": "uint256"
        }
      ],
      "stateMutability": "view",
      "type": "function",
      "constant": true
    },
    {
      "inputs": [],
      "name": "replenishDuration",
      "outputs": [
        {
          "internalType": "uint256",
          "name": "",
          "type": "uint256"
        }
      ],
      "stateMutability": "view",
      "type": "function",
      "constant": true
    },
    {
      "inputs": [
        {
          "internalType": "address",
          "name": "newOwner",
          "type": "address"
        }
      ],
      "name": "transferOwnership",
      "outputs": [],
      "stateMutability": "nonpayable",
      "type": "function"
    },
    {
      "inputs": [
        {
          "internalType": "address",
          "name": "",
          "type": "address"
        }
      ],
      "name": "userInfo",
      "outputs": [
        {
          "internalType": "uint256",
          "name": "totalCommitAmount",
          "type": "uint256"
        },
        {
          "internalType": "uint256",
          "name": "totalAmountCollected",
          "type": "uint256"
        }
      ],
      "stateMutability": "view",
      "type": "function",
      "constant": true
    },
    {
      "inputs": [
        {
          "internalType": "address",
          "name": "",
          "type": "address"
        }
      ],
      "name": "userLastClaim",
      "outputs": [
        {
          "internalType": "uint256",
          "name": "",
          "type": "uint256"
        }
      ],
      "stateMutability": "view",
      "type": "function",
      "constant": true
    },
    {
      "inputs": [
        {
          "internalType": "address",
          "name": "",
          "type": "address"
        },
        {
          "internalType": "string",
          "name": "",
          "type": "string"
        }
      ],
      "name": "userToQuestionId",
      "outputs": [
        {
          "internalType": "bool",
          "name": "answered",
          "type": "bool"
        },
        {
          "internalType": "uint256",
          "name": "unlockTimestamp",
          "type": "uint256"
        },
        {
          "internalType": "uint256",
          "name": "commitAmount",
          "type": "uint256"
        },
        {
          "internalType": "uint256",
          "name": "collectedAmount",
          "type": "uint256"
        }
      ],
      "stateMutability": "view",
      "type": "function",
      "constant": true
    },
    {
      "inputs": [],
      "name": "pause",
      "outputs": [],
      "stateMutability": "nonpayable",
      "type": "function"
    },
    {
      "inputs": [],
      "name": "unpause",
      "outputs": [],
      "stateMutability": "nonpayable",
      "type": "function"
    },
    {
      "inputs": [
        {
          "internalType": "contract IAccuCoin",
          "name": "_accuCoin",
          "type": "address"
        }
      ],
      "name": "setAccuCoin",
      "outputs": [],
      "stateMutability": "nonpayable",
      "type": "function"
    },
    {
      "inputs": [
        {
          "internalType": "address",
          "name": "_platform",
          "type": "address"
        }
      ],
      "name": "setPlatform",
      "outputs": [],
      "stateMutability": "nonpayable",
      "type": "function"
    },
    {
      "inputs": [],
      "name": "toggleIsInitialClaimable",
      "outputs": [],
      "stateMutability": "nonpayable",
      "type": "function"
    },
    {
      "inputs": [],
      "name": "toggleIsReplenishable",
      "outputs": [],
      "stateMutability": "nonpayable",
      "type": "function"
    },
    {
      "inputs": [
        {
          "internalType": "uint256",
          "name": "_initialAmount",
          "type": "uint256"
        },
        {
          "internalType": "uint256",
          "name": "_replenishAmount",
          "type": "uint256"
        },
        {
          "internalType": "uint256",
          "name": "_replenishDuration",
          "type": "uint256"
        }
      ],
      "name": "configureClaim",
      "outputs": [],
      "stateMutability": "nonpayable",
      "type": "function"
    },
    {
      "inputs": [],
      "name": "claimTokens",
      "outputs": [
        {
          "internalType": "uint256",
          "name": "claimAmount",
          "type": "uint256"
        }
      ],
      "stateMutability": "nonpayable",
      "type": "function"
    },
    {
      "inputs": [
        {
          "internalType": "string",
          "name": "questionId",
          "type": "string"
        }
      ],
      "name": "questionExist",
      "outputs": [
        {
          "internalType": "bool",
          "name": "",
          "type": "bool"
        }
      ],
      "stateMutability": "view",
      "type": "function",
      "constant": true
    },
    {
      "inputs": [
        {
          "internalType": "string",
          "name": "questionId",
          "type": "string"
        }
      ],
      "name": "getQuestion",
      "outputs": [
        {
          "components": [
            {
              "internalType": "uint256",
              "name": "multiplier",
              "type": "uint256"
            },
            {
              "internalType": "bool",
              "name": "exist",
              "type": "bool"
            }
          ],
          "internalType": "struct Cryptopati.Question",
          "name": "",
          "type": "tuple"
        }
      ],
      "stateMutability": "view",
      "type": "function",
      "constant": true
    },
    {
      "inputs": [
        {
          "internalType": "string",
          "name": "questionId",
          "type": "string"
        },
        {
          "internalType": "uint256",
          "name": "multiplier",
          "type": "uint256"
        }
      ],
      "name": "addQuestion",
      "outputs": [],
      "stateMutability": "nonpayable",
      "type": "function"
    },
    {
      "inputs": [
        {
          "internalType": "string",
          "name": "questionId",
          "type": "string"
        },
        {
          "internalType": "uint256",
          "name": "commitAmount",
          "type": "uint256"
        }
      ],
      "name": "unlockQuestion",
      "outputs": [],
      "stateMutability": "nonpayable",
      "type": "function"
    },
    {
      "inputs": [
        {
          "internalType": "string",
          "name": "questionId",
          "type": "string"
        },
        {
          "internalType": "address",
          "name": "_addressUser",
          "type": "address"
        }
      ],
      "name": "winQuestion",
      "outputs": [],
      "stateMutability": "nonpayable",
      "type": "function"
    }
  ],
  "bytecode": "0x608060405268056bc75e2d6310000060035560048054600160ff199182168117909255678ac7230489e800006005556138406006556007805490911690911790553480156200004d57600080fd5b506040516200197738038062001977833981016040819052620000709162000145565b6200009662000087640100000000620000d8810204565b640100000000620000dc810204565b6000805460a060020a60ff021916905560018054600160a060020a03938416600160a060020a0319918216179091556002805492909316911617905562000184565b3390565b60008054600160a060020a03838116600160a060020a0319831681178455604051919092169283917f8be0079c531659141344cd1fd0a4f28419497f9722a3daafe3b4186f6b6457e09190a35050565b600160a060020a03811681146200014257600080fd5b50565b600080604083850312156200015957600080fd5b825162000166816200012c565b602084015190925062000179816200012c565b809150509250929050565b6117e380620001946000396000f3fe608060405234801561001057600080fd5b50600436106101c6576000357c0100000000000000000000000000000000000000000000000000000000900480636945c5ea11610116578063bed9bb02116100b4578063ef4855961161008e578063ef485596146103bc578063f2fde38b146103cf578063fc1ed437146103e2578063fe99d1e4146103eb57600080fd5b8063bed9bb0214610371578063ccb1c0a114610379578063cecf329c146103a957600080fd5b80637ff99dbe116100f05780637ff99dbe146103425780638456cb591461034b5780638da5cb5b14610353578063a0bf70c01461036457600080fd5b80636945c5ea146103145780636ccbe81b14610327578063715018a61461033a57600080fd5b80633f4ba83a116101835780634bde38c81161015d5780634bde38c8146102c3578063503a3ed8146102d657806355e9deca146102de5780635c975abb146102f157600080fd5b80633f4ba83a14610293578063425a51771461029b57806348c54b9d146102bb57600080fd5b806312078167146101cb578063129cd33e146101fb5780631959a002146102105780632ba387541461024c57806332217e94146102635780633962612714610286575b600080fd5b6001546101de90600160a060020a031681565b604051600160a060020a0390911681526020015b60405180910390f35b61020e610209366004611432565b610462565b005b61023761021e366004611493565b600a602052600090815260409020805460019091015482565b604080519283526020830191909152016101f2565b61025560065481565b6040519081526020016101f2565b6102766102713660046114b7565b61059b565b60405190151581526020016101f2565b6007546102769060ff1681565b61020e6105ce565b6102556102a9366004611493565b600c6020526000908152604090205481565b6102556105e0565b6002546101de90600160a060020a031681565b61020e61085f565b61020e6102ec366004611432565b61087b565b60005474010000000000000000000000000000000000000000900460ff16610276565b61020e610322366004611493565b610b1e565b61020e6103353660046114f9565b610b55565b61020e610b6b565b61025560055481565b61020e610b7d565b600054600160a060020a03166101de565b6004546102769060ff1681565b61020e610b8d565b61038c6103873660046114b7565b610ba9565b6040805182518152602092830151151592810192909252016101f2565b61020e6103b7366004611525565b610c2f565b61020e6103ca366004611493565b6110bf565b61020e6103dd366004611493565b6110f6565b61025560035481565b6104406103f93660046115ab565b600b6020908152600092835260409092208151808301840180519281529084019290930191909120915280546001820154600283015460039093015460ff90921692909184565b60408051941515855260208501939093529183015260608201526080016101f2565b61046a611189565b6009838360405161047c92919061166f565b9081526040519081900360200190206001015460ff161561050c5760405160e560020a62461bcd028152602060048201526024808201527f43727970746f706174693a207175657374696f6e496420616c7265616479206160448201527f646465640000000000000000000000000000000000000000000000000000000060648201526084015b60405180910390fd5b604080518082018252828152600160208201529051600990610531908690869061166f565b908152604051602091819003820181208351815592909101516001909201805460ff1916921515929092179091557f9bdf0f47340b5b4ece38eb89dee27899b2f0ca92def38e08dc80f7b76adf05c79061058e90859085906116a8565b60405180910390a1505050565b6000600983836040516105af92919061166f565b9081526040519081900360200190206001015460ff1690505b92915050565b6105d6611189565b6105de6111e6565b565b60006105ea61124c565b336000908152600c6020526040902054156107175760075460ff1661067a5760405160e560020a62461bcd02815260206004820152602560248201527f43727970746f706174693a20746f6b656e207265706c656e697368206973207060448201527f61757365640000000000000000000000000000000000000000000000000000006064820152608401610503565b600654336000908152600c602052604090205461069790426116f3565b101561070e5760405160e560020a62461bcd02815260206004820152603860248201527f43727970746f706174693a2077616974207265706c656e69736820647572617460448201527f696f6e20746f20636c61696d206d6f726520746f6b656e7300000000000000006064820152608401610503565b50600554610797565b60045460ff166107925760405160e560020a62461bcd02815260206004820152602360248201527f43727970746f706174693a20696e697469616c20636c61696d2069732070617560448201527f73656400000000000000000000000000000000000000000000000000000000006064820152608401610503565b506003545b336000818152600c60205260409081902042905560015490517f40c10f19000000000000000000000000000000000000000000000000000000008152600481019290925260248201839052600160a060020a0316906340c10f1990604401600060405180830381600087803b15801561080f57600080fd5b505af1158015610823573d6000803e3d6000fd5b50506040518381523392507f4d7f917f6b905f28ba5297e6c224a6cfec20ac6a3698a55b412d30b95ad25d2f915060200160405180910390a290565b610867611189565b6007805460ff19811660ff90911615179055565b61088361124c565b828261088f828261059b565b6108ae5760405160e560020a62461bcd02815260040161050390611706565b336000908152600b60205260409081902090516108ce908790879061166f565b9081526020016040518091039020600101546000146109585760405160e560020a62461bcd02815260206004820152602560248201527f43727970746f706174693a205175657374696f6e20616c726561647920756e6c60448201527f6f636b65640000000000000000000000000000000000000000000000000000006064820152608401610503565b826000036109ab5760405160e560020a62461bcd02815260206004820152601e60248201527f43727970746f706174693a20436f6d6d697420416d6f756e74205a65726f00006044820152606401610503565b336000908152600b60205260409081902090518491906109ce908890889061166f565b908152604080516020928190038301812060020193909355336000908152600b90925290204291610a02908890889061166f565b908152604080516020928190038301902060010192909255336000908152600a9091529081208054859290610a3890849061173d565b90915550506001546040517f23b872dd00000000000000000000000000000000000000000000000000000000815233600482015230602482015260448101859052600160a060020a03909116906323b872dd906064016020604051808303816000875af1158015610aad573d6000803e3d6000fd5b505050506040513d601f19601f82011682018060405250810190610ad19190611750565b5033600160a060020a03167f67da36e16a632f9aaad852491a734952a41b7884fa841f566862c81003adeb13868686604051610b0f93929190611772565b60405180910390a25050505050565b610b26611189565b6002805473ffffffffffffffffffffffffffffffffffffffff1916600160a060020a0392909216919091179055565b610b5d611189565b600392909255600555600655565b610b73611189565b6105de60006112ba565b610b85611189565b6105de611317565b610b95611189565b6004805460ff19811660ff90911615179055565b60408051808201909152600080825260208201528282610bc9828261059b565b610be85760405160e560020a62461bcd02815260040161050390611706565b60098585604051610bfa92919061166f565b9081526040805191829003602090810183208383019092528154835260019091015460ff161515908201529250505092915050565b8282610c3b828261059b565b610c5a5760405160e560020a62461bcd02815260040161050390611706565b600254600160a060020a03163314610cb75760405160e560020a62461bcd02815260206004820152601960248201527f43727970746f706174693a206f6e6c7920706c6174666f726d000000000000006044820152606401610503565b600160a060020a0383166000908152600b6020526040908190209051610ce0908790879061166f565b908152602001604051809103902060010154600003610d6a5760405160e560020a62461bcd02815260206004820152602160248201527f43727970746f706174693a205175657374696f6e206e6f7420756e6c6f636b6560448201527f64000000000000000000000000000000000000000000000000000000000000006064820152608401610503565b600160a060020a0383166000908152600b6020526040908190209051610d93908790879061166f565b9081526040519081900360200190205460ff1615610e1c5760405160e560020a62461bcd02815260206004820152602560248201527f43727970746f706174693a205175657374696f6e20616c726561647920616e7360448201527f77657265640000000000000000000000000000000000000000000000000000006064820152608401610503565b600160a060020a0383166000908152600b602052604090819020905160019190610e49908890889061166f565b9081526040805160209281900383018120805460ff191694151594909417909355600160a060020a0386166000908152600b90925281209091610e8f908890889061166f565b9081526020016040518091039020600201549050600060098787604051610eb792919061166f565b90815260405190819003602001902054610ed19083611796565b9050610edd82826116f3565b600855600160a060020a0385166000908152600b6020526040908190209051829190610f0c908a908a9061166f565b90815260200160405180910390206003018190555080600a600087600160a060020a0316600160a060020a031681526020019081526020016000206001016000828254610f59919061173d565b90915550506001546008546040517f40c10f19000000000000000000000000000000000000000000000000000000008152600160a060020a03888116600483015260248201929092529116906340c10f1990604401600060405180830381600087803b158015610fc857600080fd5b505af1158015610fdc573d6000803e3d6000fd5b50506001546040517fa9059cbb000000000000000000000000000000000000000000000000000000008152600160a060020a03898116600483015260248201879052909116925063a9059cbb91506044016020604051808303816000875af115801561104c573d6000803e3d6000fd5b505050506040513d601f19601f820116820180604052508101906110709190611750565b5084600160a060020a03167f121ac003552f99fa84985528b2fcf8156f08f6f0aa48e9c5245098682cee2ec88888846040516110ae93929190611772565b60405180910390a250505050505050565b6110c7611189565b6001805473ffffffffffffffffffffffffffffffffffffffff1916600160a060020a0392909216919091179055565b6110fe611189565b600160a060020a03811661117d5760405160e560020a62461bcd02815260206004820152602660248201527f4f776e61626c653a206e6577206f776e657220697320746865207a65726f206160448201527f64647265737300000000000000000000000000000000000000000000000000006064820152608401610503565b611186816112ba565b50565b600054600160a060020a031633146105de5760405160e560020a62461bcd02815260206004820181905260248201527f4f776e61626c653a2063616c6c6572206973206e6f7420746865206f776e65726044820152606401610503565b6111ee61137c565b6000805474ff0000000000000000000000000000000000000000191690557f5db9ee0a495bf2e6ff9c91a7834c1ba4fdd244a5e8aa4e537bd38aeae4b073aa335b604051600160a060020a03909116815260200160405180910390a1565b60005474010000000000000000000000000000000000000000900460ff16156105de5760405160e560020a62461bcd02815260206004820152601060248201527f5061757361626c653a20706175736564000000000000000000000000000000006044820152606401610503565b60008054600160a060020a0383811673ffffffffffffffffffffffffffffffffffffffff19831681178455604051919092169283917f8be0079c531659141344cd1fd0a4f28419497f9722a3daafe3b4186f6b6457e09190a35050565b61131f61124c565b6000805474ff00000000000000000000000000000000000000001916740100000000000000000000000000000000000000001790557f62e78cea01bee320cd4e420270b5ea74000d11b0c9f74754ebdbfc544b05a25861122f3390565b60005474010000000000000000000000000000000000000000900460ff166105de5760405160e560020a62461bcd02815260206004820152601460248201527f5061757361626c653a206e6f74207061757365640000000000000000000000006044820152606401610503565b60008083601f8401126113fb57600080fd5b50813567ffffffffffffffff81111561141357600080fd5b60208301915083602082850101111561142b57600080fd5b9250929050565b60008060006040848603121561144757600080fd5b833567ffffffffffffffff81111561145e57600080fd5b61146a868287016113e9565b909790965060209590950135949350505050565b600160a060020a038116811461118657600080fd5b6000602082840312156114a557600080fd5b81356114b08161147e565b9392505050565b600080602083850312156114ca57600080fd5b823567ffffffffffffffff8111156114e157600080fd5b6114ed858286016113e9565b90969095509350505050565b60008060006060848603121561150e57600080fd5b505081359360208301359350604090920135919050565b60008060006040848603121561153a57600080fd5b833567ffffffffffffffff81111561155157600080fd5b61155d868287016113e9565b90945092505060208401356115718161147e565b809150509250925092565b7f4e487b7100000000000000000000000000000000000000000000000000000000600052604160045260246000fd5b600080604083850312156115be57600080fd5b82356115c98161147e565b9150602083013567ffffffffffffffff808211156115e657600080fd5b818501915085601f8301126115fa57600080fd5b81358181111561160c5761160c61157c565b604051601f8201601f19908116603f011681019083821181831017156116345761163461157c565b8160405282815288602084870101111561164d57600080fd5b8260208601602083013760006020848301015280955050505050509250929050565b8183823760009101908152919050565b81835281816020850137506000828201602090810191909152601f909101601f19169091010190565b6020815260006116bc60208301848661167f565b949350505050565b7f4e487b7100000000000000000000000000000000000000000000000000000000600052601160045260246000fd5b818103818111156105c8576105c86116c4565b6020808252601c908201527f43727970746f706174693a20696e76616c6964207175657374696f6e00000000604082015260600190565b808201808211156105c8576105c86116c4565b60006020828403121561176257600080fd5b815180151581146114b057600080fd5b60408152600061178660408301858761167f565b9050826020830152949350505050565b80820281158282048414176105c8576105c86116c456fea26469706673582212201a63ea3fb043cbf64354fff11980d4ed0f0cb135bbd690b9507b280c3b6749f864736f6c63430008110033",
  "immutableReferences": {},
  "source": "// SPDX-License-Identifier: MIT\r\npragma solidity 0.8.17;\r\n\r\nimport \"@openzeppelin/contracts/access/Ownable.sol\";\r\nimport \"@openzeppelin/contracts/security/Pausable.sol\";\r\nimport \"@openzeppelin/contracts/token/ERC20/IERC20.sol\";\r\nimport \"./interfaces/IAccuCoin.sol\";\r\n\r\ncontract Cryptopati is Ownable, Pausable {\r\n    IAccuCoin public accuCoin; // Address of the Accu Coin\r\n    address public platform; // Platform wallet manages certain functions\r\n    uint256 public initialAmount = 100 ether; // Amount that can be claimed initially\r\n    bool public isInitialClaimable = true; // Boolean indicating whether the initial claiming for tokens is open\r\n    uint256 public replenishAmount = 10 ether; // Amount that can be claimed when replenished\r\n    uint256 public replenishDuration = 4 hours; // Duration after which tokens will be replenished\r\n    bool public isReplenishable = true; // Boolean indicating whether the claiming for tokens is replenishable\r\n    uint256 private multiplierAmount; //multiplier amount of the users invested token to a question\r\n    struct Question {\r\n        uint256 multiplier;\r\n        bool exist;\r\n    }\r\n    struct UserToQuestionId {\r\n        bool answered;\r\n        uint256 unlockTimestamp;\r\n        uint256 commitAmount;\r\n        uint256 collectedAmount;\r\n    }\r\n\r\n    struct User {\r\n        uint256 totalCommitAmount;\r\n        uint256 totalAmountCollected;\r\n    }\r\n\r\n    mapping(string => Question) private _questions; // Question ID => Question {}\r\n    mapping(address => User) public userInfo;\r\n    mapping(address => mapping(string => UserToQuestionId))\r\n        public userToQuestionId;\r\n    mapping(address => uint256) public userLastClaim; // Timestamp at which user claimed token last\r\n    /* Events */\r\n    event QuestionAdd(string questionId);\r\n    event ClaimTokens(address indexed user, uint256 amount);\r\n    event UnlockQuestion(\r\n        address indexed user,\r\n        string questionId,\r\n        uint256 commitAmount\r\n    );\r\n    event WinQuestion(\r\n        address indexed user,\r\n        string questionId,\r\n        uint256 rewardAmount\r\n    );\r\n\r\n    /* Modifiers */\r\n    modifier onlyValid(string calldata questionId) {\r\n        require(questionExist(questionId), \"Cryptopati: invalid question\");\r\n        _;\r\n    }\r\n\r\n    constructor(IAccuCoin _accuCoin, address _platform) Ownable() {\r\n        accuCoin = _accuCoin;\r\n        platform = _platform;\r\n    }\r\n\r\n    /**\r\n     * @notice This method is used pause user functionalities of the contract\r\n     */\r\n    function pause() external onlyOwner {\r\n        _pause();\r\n    }\r\n\r\n    /**\r\n     * @notice This method is used unpause user functionalities of the contract\r\n     */\r\n    function unpause() external onlyOwner {\r\n        _unpause();\r\n    }\r\n\r\n    /**\r\n     * @notice This method is used to address of accu coin\r\n     * @param _accuCoin Address of accu coin\r\n     */\r\n    function setAccuCoin(IAccuCoin _accuCoin) external onlyOwner {\r\n        accuCoin = _accuCoin;\r\n    }\r\n\r\n    /**\r\n     * @notice This method is used to set platform wallet address\r\n     * @param _platform Address of the platform wallet\r\n     */\r\n    function setPlatform(address _platform) external onlyOwner {\r\n        platform = _platform;\r\n    }\r\n\r\n    /**\r\n     * @notice This method is used to toggle initial token claim\r\n     */\r\n    function toggleIsInitialClaimable() external onlyOwner {\r\n        isInitialClaimable = !isInitialClaimable;\r\n    }\r\n\r\n    /**\r\n     * @notice This method is used to toggle token replenish claim\r\n     */\r\n    function toggleIsReplenishable() external onlyOwner {\r\n        isReplenishable = !isReplenishable;\r\n    }\r\n\r\n    /**\r\n     * @notice This method is used to set token claim settings\r\n     * @param _initialAmount Initial amount that can be claimed by an address\r\n     * @param _replenishAmount Amount of tokens that can be claimed when replenished\r\n     * @param _replenishDuration Duration in which token will replenish\r\n     */\r\n    function configureClaim(\r\n        uint256 _initialAmount,\r\n        uint256 _replenishAmount,\r\n        uint256 _replenishDuration\r\n    ) external onlyOwner {\r\n        initialAmount = _initialAmount;\r\n        replenishAmount = _replenishAmount;\r\n        replenishDuration = _replenishDuration;\r\n    }\r\n\r\n    /**\r\n     * @notice This method is used to claim tokens initially or when replenished\r\n     */\r\n    function claimTokens()\r\n        external\r\n        whenNotPaused\r\n        returns (uint256 claimAmount)\r\n    {\r\n        if (userLastClaim[msg.sender] != 0) {\r\n            require(isReplenishable, \"Cryptopati: token replenish is paused\");\r\n            require(\r\n                block.timestamp - userLastClaim[msg.sender] >=\r\n                    replenishDuration,\r\n                \"Cryptopati: wait replenish duration to claim more tokens\"\r\n            );\r\n            claimAmount = replenishAmount;\r\n        } else {\r\n            require(isInitialClaimable, \"Cryptopati: initial claim is paused\");\r\n            claimAmount = initialAmount;\r\n        }\r\n        userLastClaim[msg.sender] = block.timestamp;\r\n        accuCoin.mint(msg.sender, claimAmount);\r\n        emit ClaimTokens(msg.sender, claimAmount);\r\n    }\r\n\r\n    /**\r\n     * @notice This method is used to check if a question exist\r\n     * @param questionId ID of the question\r\n     */\r\n    function questionExist(\r\n        string calldata questionId\r\n    ) public view returns (bool) {\r\n        return _questions[questionId].exist;\r\n    }\r\n\r\n    /**\r\n     * @notice This method is used to get question details\r\n     * @param questionId ID of the question\r\n     */\r\n    function getQuestion(\r\n        string calldata questionId\r\n    ) external view onlyValid(questionId) returns (Question memory) {\r\n        return _questions[questionId];\r\n    }\r\n\r\n    /**\r\n     * @notice This method is used to get question details\r\n     * @param questionId ID of the question\r\n     */\r\n    function addQuestion(\r\n        string calldata questionId,\r\n        uint256 multiplier\r\n    ) external onlyOwner {\r\n        require(\r\n            !_questions[questionId].exist,\r\n            \"Cryptopati: questionId already added\"\r\n        );\r\n\r\n        _questions[questionId] = Question(multiplier, true);\r\n\r\n        emit QuestionAdd(questionId);\r\n    }\r\n\r\n    /**\r\n     * @notice This method is used to unlock the question\r\n     * @param questionId ID of the question\r\n     * @param commitAmount Amount user invests to unlock the question\r\n     */\r\n    function unlockQuestion(\r\n        string calldata questionId,\r\n        uint256 commitAmount\r\n    ) external whenNotPaused onlyValid(questionId) {\r\n        require(\r\n            userToQuestionId[msg.sender][questionId].unlockTimestamp == 0,\r\n            \"Cryptopati: Question already unlocked\"\r\n        );\r\n        require(commitAmount != 0, \"Cryptopati: Commit Amount Zero\");\r\n\r\n        userToQuestionId[msg.sender][questionId].commitAmount = commitAmount;\r\n        userToQuestionId[msg.sender][questionId].unlockTimestamp = block\r\n            .timestamp;\r\n\r\n        userInfo[msg.sender].totalCommitAmount += commitAmount;\r\n\r\n        accuCoin.transferFrom(msg.sender, address(this), commitAmount);\r\n\r\n        emit UnlockQuestion(msg.sender, questionId, commitAmount);\r\n    }\r\n\r\n    /**\r\n     * @notice This method is used to transfer reward if answer is correct\r\n     * @param questionId ID of the question\r\n     * @param _addressUser address of the user to sent reward\r\n     */\r\n    function winQuestion(\r\n        string calldata questionId,\r\n        address _addressUser\r\n    ) external onlyValid(questionId) {\r\n        require(msg.sender == platform, \"Cryptopati: only platform\");\r\n        require(\r\n            userToQuestionId[_addressUser][questionId].unlockTimestamp != 0,\r\n            \"Cryptopati: Question not unlocked\"\r\n        );\r\n        require(\r\n            !userToQuestionId[_addressUser][questionId].answered,\r\n            \"Cryptopati: Question already answered\"\r\n        );\r\n\r\n        userToQuestionId[_addressUser][questionId].answered = true;\r\n        uint256 userCommitAmount = userToQuestionId[_addressUser][questionId]\r\n            .commitAmount;\r\n        uint256 userCollectedAmount = userCommitAmount *\r\n            _questions[questionId].multiplier;\r\n        multiplierAmount = userCollectedAmount - userCommitAmount;\r\n        userToQuestionId[_addressUser][questionId]\r\n            .collectedAmount = userCollectedAmount;\r\n\r\n        userInfo[_addressUser].totalAmountCollected += userCollectedAmount;\r\n        accuCoin.mint(_addressUser, multiplierAmount);\r\n        accuCoin.transfer(_addressUser, userCommitAmount);\r\n        emit WinQuestion(_addressUser, questionId, userCollectedAmount);\r\n    }\r\n}\r\n",
  "sourcePath": "C:\\Users\\Lenovo\\RnR\\Tokenopati\\contracts\\Cryptopati.sol",
  "compiler": {
    "name": "solc",
    "version": "0.8.17+commit.8df45f5f.Emscripten.clang"
  },
  "schemaVersion": "3.4.11",
  "updatedAt": "2023-01-27T18:51:00.916Z",
  "networkType": "ethereum",
  "devdoc": {
    "kind": "dev",
    "methods": {
      "addQuestion(string,uint256)": {
        "params": {
          "questionId": "ID of the question"
        }
      },
      "configureClaim(uint256,uint256,uint256)": {
        "params": {
          "_initialAmount": "Initial amount that can be claimed by an address",
          "_replenishAmount": "Amount of tokens that can be claimed when replenished",
          "_replenishDuration": "Duration in which token will replenish"
        }
      },
      "getQuestion(string)": {
        "params": {
          "questionId": "ID of the question"
        }
      },
      "owner()": {
        "details": "Returns the address of the current owner."
      },
      "paused()": {
        "details": "Returns true if the contract is paused, and false otherwise."
      },
      "questionExist(string)": {
        "params": {
          "questionId": "ID of the question"
        }
      },
      "renounceOwnership()": {
        "details": "Leaves the contract without owner. It will not be possible to call `onlyOwner` functions anymore. Can only be called by the current owner. NOTE: Renouncing ownership will leave the contract without an owner, thereby removing any functionality that is only available to the owner."
      },
      "setAccuCoin(address)": {
        "params": {
          "_accuCoin": "Address of accu coin"
        }
      },
      "setPlatform(address)": {
        "params": {
          "_platform": "Address of the platform wallet"
        }
      },
      "transferOwnership(address)": {
        "details": "Transfers ownership of the contract to a new account (`newOwner`). Can only be called by the current owner."
      },
      "unlockQuestion(string,uint256)": {
        "params": {
          "commitAmount": "Amount user invests to unlock the question",
          "questionId": "ID of the question"
        }
      },
      "winQuestion(string,address)": {
        "params": {
          "_addressUser": "address of the user to sent reward",
          "questionId": "ID of the question"
        }
      }
    },
    "version": 1
  },
  "userdoc": {
    "kind": "user",
    "methods": {
      "addQuestion(string,uint256)": {
        "notice": "This method is used to get question details"
      },
      "claimTokens()": {
        "notice": "This method is used to claim tokens initially or when replenished"
      },
      "configureClaim(uint256,uint256,uint256)": {
        "notice": "This method is used to set token claim settings"
      },
      "getQuestion(string)": {
        "notice": "This method is used to get question details"
      },
      "pause()": {
        "notice": "This method is used pause user functionalities of the contract"
      },
      "questionExist(string)": {
        "notice": "This method is used to check if a question exist"
      },
      "setAccuCoin(address)": {
        "notice": "This method is used to address of accu coin"
      },
      "setPlatform(address)": {
        "notice": "This method is used to set platform wallet address"
      },
      "toggleIsInitialClaimable()": {
        "notice": "This method is used to toggle initial token claim"
      },
      "toggleIsReplenishable()": {
        "notice": "This method is used to toggle token replenish claim"
      },
      "unlockQuestion(string,uint256)": {
        "notice": "This method is used to unlock the question"
      },
      "unpause()": {
        "notice": "This method is used unpause user functionalities of the contract"
      },
      "winQuestion(string,address)": {
        "notice": "This method is used to transfer reward if answer is correct"
      }
    },
    "version": 1
  }
}